{
  "contractName": "InvoiceFactory",
  "abi": [
    {
      "inputs": [
        {
          "internalType": "address",
          "name": "_usdtTokenAddress",
          "type": "address"
        }
      ],
      "stateMutability": "nonpayable",
      "type": "constructor"
    },
    {
      "anonymous": false,
      "inputs": [
        {
          "indexed": true,
          "internalType": "bytes32",
          "name": "salt",
          "type": "bytes32"
        },
        {
          "indexed": false,
          "internalType": "address",
          "name": "contractAddress",
          "type": "address"
        },
        {
          "indexed": false,
          "internalType": "address",
          "name": "sellerWallet",
          "type": "address"
        }
      ],
      "name": "InvoiceCreated",
      "type": "event"
    },
    {
      "inputs": [
        {
          "internalType": "bytes32",
          "name": "_salt",
          "type": "bytes32"
        },
        {
          "internalType": "address",
          "name": "_sellerWallet",
          "type": "address"
        }
      ],
      "name": "createInvoice",
      "outputs": [],
      "stateMutability": "nonpayable",
      "type": "function"
    },
    {
      "inputs": [
        {
          "internalType": "bytes32",
          "name": "",
          "type": "bytes32"
        }
      ],
      "name": "deployedInvoices",
      "outputs": [
        {
          "internalType": "address",
          "name": "",
          "type": "address"
        }
      ],
      "stateMutability": "view",
      "type": "function"
    },
    {
      "inputs": [
        {
          "internalType": "bytes32",
          "name": "_salt",
          "type": "bytes32"
        },
        {
          "internalType": "bytes",
          "name": "_bytecode",
          "type": "bytes"
        }
      ],
      "name": "getAddress",
      "outputs": [
        {
          "internalType": "address",
          "name": "",
          "type": "address"
        }
      ],
      "stateMutability": "view",
      "type": "function"
    },
    {
      "inputs": [],
      "name": "owner",
      "outputs": [
        {
          "internalType": "address",
          "name": "",
          "type": "address"
        }
      ],
      "stateMutability": "view",
      "type": "function"
    },
    {
      "inputs": [
        {
          "internalType": "bytes32",
          "name": "_salt",
          "type": "bytes32"
        }
      ],
      "name": "triggerSweep",
      "outputs": [],
      "stateMutability": "nonpayable",
      "type": "function"
    },
    {
      "inputs": [],
      "name": "usdtTokenAddress",
      "outputs": [
        {
          "internalType": "address",
          "name": "",
          "type": "address"
        }
      ],
      "stateMutability": "view",
      "type": "function"
    }
  ],
  "bytecode": "0x608060405234801562000010575f80fd5b50d380156200001d575f80fd5b50d280156200002a575f80fd5b506040516200172638038062001726833981810160405281019062000050919062000168565b335f806101000a81548173ffffffffffffffffffffffffffffffffffffffff021916908373ffffffffffffffffffffffffffffffffffffffff1602179055508060015f6101000a81548173ffffffffffffffffffffffffffffffffffffffff021916908373ffffffffffffffffffffffffffffffffffffffff1602179055505062000198565b5f80fd5b5f74ffffffffffffffffffffffffffffffffffffffffff82169050919050565b6200010581620000da565b811462000110575f80fd5b50565b5f73ffffffffffffffffffffffffffffffffffffffff82169050919050565b5f6200013e8262000113565b9050919050565b5f815190506200015581620000fa565b620001608162000132565b905092915050565b5f6020828403121562000180576200017f620000d6565b5b5f6200018f8482850162000145565b91505092915050565b61158080620001a65f395ff3fe608060405234801562000010575f80fd5b50d380156200001d575f80fd5b50d280156200002a575f80fd5b506004361062000082575f3560e01c80634aa60a0a14620000865780638da5cb5b14620000a65780639d741e5d14620000c8578063b97038e114620000ea578063d959fd0e146200010a578063f3aa59b31462000140575b5f80fd5b620000a460048036038101906200009e919062000767565b62000176565b005b620000b06200042a565b604051620000bf9190620007bd565b60405180910390f35b620000d26200044d565b604051620000e19190620007bd565b60405180910390f35b620001086004803603810190620001029190620007d8565b62000472565b005b62000128600480360381019062000122919062000960565b62000608565b604051620001379190620007bd565b60405180910390f35b6200015e6004803603810190620001589190620007d8565b62000652565b6040516200016d9190620007bd565b60405180910390f35b5f8054906101000a900473ffffffffffffffffffffffffffffffffffffffff1673ffffffffffffffffffffffffffffffffffffffff163373ffffffffffffffffffffffffffffffffffffffff161462000206576040517f08c379a0000000000000000000000000000000000000000000000000000000008152600401620001fd9062000a22565b60405180910390fd5b5f60405180602001620002199062000682565b6020820181038252601f19601f820116604052509050808260015f9054906101000a900473ffffffffffffffffffffffffffffffffffffffff1630604051602001620002689392919062000a42565b6040516020818303038152906040526040516020016200028a92919062000af1565b60405160208183030381529060405290505f620002a8848362000608565b90505f848351602085015ff590505f73ffffffffffffffffffffffffffffffffffffffff168173ffffffffffffffffffffffffffffffffffffffff160362000327576040517f08c379a00000000000000000000000000000000000000000000000000000000081526004016200031e9062000b66565b60405180910390fd5b8173ffffffffffffffffffffffffffffffffffffffff168173ffffffffffffffffffffffffffffffffffffffff161462000398576040517f08c379a00000000000000000000000000000000000000000000000000000000081526004016200038f9062000bd4565b60405180910390fd5b8060025f8781526020019081526020015f205f6101000a81548173ffffffffffffffffffffffffffffffffffffffff021916908373ffffffffffffffffffffffffffffffffffffffff160217905550847f5243d6c5479d93025de9e138a29c467868f762bb78591e96299fb3f437afcc0482866040516200041b92919062000bf4565b60405180910390a25050505050565b5f8054906101000a900473ffffffffffffffffffffffffffffffffffffffff1681565b60015f9054906101000a900473ffffffffffffffffffffffffffffffffffffffff1681565b5f8054906101000a900473ffffffffffffffffffffffffffffffffffffffff1673ffffffffffffffffffffffffffffffffffffffff163373ffffffffffffffffffffffffffffffffffffffff161462000502576040517f08c379a0000000000000000000000000000000000000000000000000000000008152600401620004f99062000a22565b60405180910390fd5b5f60025f8381526020019081526020015f205f9054906101000a900473ffffffffffffffffffffffffffffffffffffffff1690505f73ffffffffffffffffffffffffffffffffffffffff168173ffffffffffffffffffffffffffffffffffffffff1603620005a7576040517f08c379a00000000000000000000000000000000000000000000000000000000081526004016200059e9062000c6d565b60405180910390fd5b8073ffffffffffffffffffffffffffffffffffffffff16638925dbcc6040518163ffffffff1660e01b81526004015f604051808303815f87803b158015620005ed575f80fd5b505af115801562000600573d5f803e3d5ffd5b505050505050565b5f8060ff60f81b308585805190602001206040516020016200062e949392919062000d4d565b604051602081830303815290604052805190602001209050805f1c91505092915050565b6002602052805f5260405f205f915054906101000a900473ffffffffffffffffffffffffffffffffffffffff1681565b6107a88062000da383390190565b5f604051905090565b5f80fd5b5f80fd5b5f819050919050565b620006b581620006a1565b8114620006c0575f80fd5b50565b5f81359050620006d381620006aa565b92915050565b5f74ffffffffffffffffffffffffffffffffffffffffff82169050919050565b6200070481620006d9565b81146200070f575f80fd5b50565b5f73ffffffffffffffffffffffffffffffffffffffff82169050919050565b5f6200073d8262000712565b9050919050565b5f813590506200075481620006f9565b6200075f8162000731565b905092915050565b5f806040838503121562000780576200077f62000699565b5b5f6200078f85828601620006c3565b9250506020620007a28582860162000744565b9150509250929050565b620007b78162000731565b82525050565b5f602082019050620007d25f830184620007ac565b92915050565b5f60208284031215620007f057620007ef62000699565b5b5f620007ff84828501620006c3565b91505092915050565b5f80fd5b5f80fd5b5f601f19601f8301169050919050565b7f4e487b71000000000000000000000000000000000000000000000000000000005f52604160045260245ffd5b620008588262000810565b810181811067ffffffffffffffff821117156200087a576200087962000820565b5b80604052505050565b5f6200088e62000690565b90506200089c82826200084d565b919050565b5f67ffffffffffffffff821115620008be57620008bd62000820565b5b620008c98262000810565b9050602081019050919050565b828183375f83830152505050565b5f620008fa620008f484620008a1565b62000883565b9050828152602081018484840111156200091957620009186200080c565b5b62000926848285620008d6565b509392505050565b5f82601f83011262000945576200094462000808565b5b813562000957848260208601620008e4565b91505092915050565b5f806040838503121562000979576200097862000699565b5b5f6200098885828601620006c3565b925050602083013567ffffffffffffffff811115620009ac57620009ab6200069d565b5b620009ba858286016200092e565b9150509250929050565b5f82825260208201905092915050565b7f43616c6c6572206973206e6f7420746865206f776e65720000000000000000005f82015250565b5f62000a0a601783620009c4565b915062000a1782620009d4565b602082019050919050565b5f6020820190508181035f83015262000a3b81620009fc565b9050919050565b5f60608201905062000a575f830186620007ac565b62000a666020830185620007ac565b62000a756040830184620007ac565b949350505050565b5f81519050919050565b5f81905092915050565b5f5b8381101562000ab057808201518184015260208101905062000a93565b5f8484015250505050565b5f62000ac78262000a7d565b62000ad3818562000a87565b935062000ae581856020860162000a91565b80840191505092915050565b5f62000afe828562000abb565b915062000b0c828462000abb565b91508190509392505050565b7f4465706c6f796d656e74206661696c65640000000000000000000000000000005f82015250565b5f62000b4e601183620009c4565b915062000b5b8262000b18565b602082019050919050565b5f6020820190508181035f83015262000b7f8162000b40565b9050919050565b7f41646472657373206d69736d61746368000000000000000000000000000000005f82015250565b5f62000bbc601083620009c4565b915062000bc98262000b86565b602082019050919050565b5f6020820190508181035f83015262000bed8162000bae565b9050919050565b5f60408201905062000c095f830185620007ac565b62000c186020830184620007ac565b9392505050565b7f496e766f69636520646f6573206e6f74206578697374000000000000000000005f82015250565b5f62000c55601683620009c4565b915062000c628262000c1f565b602082019050919050565b5f6020820190508181035f83015262000c868162000c47565b9050919050565b5f7fff0000000000000000000000000000000000000000000000000000000000000082169050919050565b5f819050919050565b62000cd662000cd08262000c8d565b62000cb8565b82525050565b5f8160601b9050919050565b5f62000cf48262000cdc565b9050919050565b5f62000d078262000ce8565b9050919050565b62000d2362000d1d8262000731565b62000cfb565b82525050565b5f819050919050565b62000d4762000d4182620006a1565b62000d29565b82525050565b5f62000d5a828762000cc1565b60018201915062000d6c828662000d0e565b60148201915062000d7e828562000d32565b60208201915062000d90828462000d32565b6020820191508190509594505050505056fe608060405234801561000f575f80fd5b50d3801561001b575f80fd5b50d28015610027575f80fd5b506040516107a83803806107a883398181016040528101906100499190610199565b805f806101000a81548173ffffffffffffffffffffffffffffffffffffffff021916908373ffffffffffffffffffffffffffffffffffffffff1602179055508260015f6101000a81548173ffffffffffffffffffffffffffffffffffffffff021916908373ffffffffffffffffffffffffffffffffffffffff1602179055508160025f6101000a81548173ffffffffffffffffffffffffffffffffffffffff021916908373ffffffffffffffffffffffffffffffffffffffff1602179055505050506101e9565b5f80fd5b5f74ffffffffffffffffffffffffffffffffffffffffff82169050919050565b61013d81610114565b8114610147575f80fd5b50565b5f73ffffffffffffffffffffffffffffffffffffffff82169050919050565b5f6101738261014a565b9050919050565b5f8151905061018881610134565b61019181610169565b905092915050565b5f805f606084860312156101b0576101af610110565b5b5f6101bd8682870161017a565b93505060206101ce8682870161017a565b92505060406101df8682870161017a565b9150509250925092565b6105b2806101f65f395ff3fe608060405234801561000f575f80fd5b50d3801561001b575f80fd5b50d28015610027575f80fd5b5060043610610062575f3560e01c80638460a5de146100665780638925dbcc146100845780638da5cb5b1461008e5780639d741e5d146100ac575b5f80fd5b61006e6100ca565b60405161007b919061038b565b60405180910390f35b61008c6100ef565b005b610096610304565b6040516100a3919061038b565b60405180910390f35b6100b4610327565b6040516100c1919061038b565b60405180910390f35b60015f9054906101000a900473ffffffffffffffffffffffffffffffffffffffff1681565b5f8054906101000a900473ffffffffffffffffffffffffffffffffffffffff1673ffffffffffffffffffffffffffffffffffffffff163373ffffffffffffffffffffffffffffffffffffffff161461017c576040517f08c379a0000000000000000000000000000000000000000000000000000000008152600401610173906103fe565b60405180910390fd5b5f60025f9054906101000a900473ffffffffffffffffffffffffffffffffffffffff1690505f8173ffffffffffffffffffffffffffffffffffffffff166370a08231306040518263ffffffff1660e01b81526004016101db919061038b565b602060405180830381865afa1580156101f6573d5f803e3d5ffd5b505050506040513d601f19601f8201168201806040525081019061021a9190610453565b90505f811115610300578173ffffffffffffffffffffffffffffffffffffffff1663a9059cbb60015f9054906101000a900473ffffffffffffffffffffffffffffffffffffffff16836040518363ffffffff1660e01b815260040161028092919061048d565b6020604051808303815f875af115801561029c573d5f803e3d5ffd5b505050506040513d601f19601f820116820180604052508101906102c091906104e9565b6102ff576040517f08c379a00000000000000000000000000000000000000000000000000000000081526004016102f69061055e565b60405180910390fd5b5b5050565b5f8054906101000a900473ffffffffffffffffffffffffffffffffffffffff1681565b60025f9054906101000a900473ffffffffffffffffffffffffffffffffffffffff1681565b5f73ffffffffffffffffffffffffffffffffffffffff82169050919050565b5f6103758261034c565b9050919050565b6103858161036b565b82525050565b5f60208201905061039e5f83018461037c565b92915050565b5f82825260208201905092915050565b7f4f6e6c79206f776e65722063616e2073776565700000000000000000000000005f82015250565b5f6103e86014836103a4565b91506103f3826103b4565b602082019050919050565b5f6020820190508181035f830152610415816103dc565b9050919050565b5f80fd5b5f819050919050565b61043281610420565b811461043c575f80fd5b50565b5f8151905061044d81610429565b92915050565b5f602082840312156104685761046761041c565b5b5f6104758482850161043f565b91505092915050565b61048781610420565b82525050565b5f6040820190506104a05f83018561037c565b6104ad602083018461047e565b9392505050565b5f8115159050919050565b6104c8816104b4565b81146104d2575f80fd5b50565b5f815190506104e3816104bf565b92915050565b5f602082840312156104fe576104fd61041c565b5b5f61050b848285016104d5565b91505092915050565b7f5472616e73666572206661696c656400000000000000000000000000000000005f82015250565b5f610548600f836103a4565b915061055382610514565b602082019050919050565b5f6020820190508181035f8301526105758161053c565b905091905056fea26474726f6e58221220133b2bbecbd324cd902aa3dd8bea86975b916f45a1737355d1816d6a9d6cd6a464736f6c63430008140033a26474726f6e58221220e9161bc24c9553d227d85c4fd82147432a45cd85f1c99999f344810fd7ceabdd64736f6c63430008140033",
  "source": "// SPDX-License-Identifier: MIT\npragma solidity ^0.8.0;\n\nimport \"./InvoiceForwarder.sol\"; // <-- Add this import\n\n// This is the main factory contract.\ncontract InvoiceFactory {\n    // --- State Variables ---\n\n    address public owner; // The address of the platform owner/administrator.\n    address public usdtTokenAddress; // The address of the TRC-20 USDT token contract.\n\n    // A mapping to keep track of the deployed invoice contracts.\n    // The key is the 'salt' (e.g., your internal invoice ID), and the value is the deployed contract address.\n    mapping(bytes32 => address) public deployedInvoices;\n\n    // --- Events ---\n\n    // This event is emitted every time a new invoice contract is created.\n    // Your backend can listen for this event to get the new address.\n    event InvoiceCreated(\n        bytes32 indexed salt,\n        address contractAddress,\n        address sellerWallet\n    );\n\n    // --- Modifiers ---\n\n    // A simple modifier to restrict certain functions to only be callable by the owner.\n    modifier onlyOwner() {\n        require(msg.sender == owner, \"Caller is not the owner\");\n        _;\n    }\n\n    // --- Constructor ---\n\n    // The constructor is called only once when the contract is first deployed.\n    // It sets the owner of the factory and the address of the USDT token.\n    constructor(address _usdtTokenAddress) {\n        owner = msg.sender;\n        usdtTokenAddress = _usdtTokenAddress;\n    }\n\n    // --- Public Functions ---\n\n    /**\n     * @dev Deploys a new InvoiceForwarder contract for a specific invoice.\n     * @param _salt A unique identifier for the invoice (e.g., keccak256 hash of your internal invoice ID).\n     * @param _sellerWallet The final destination wallet for the funds.\n     */\n    function createInvoice(bytes32 _salt, address _sellerWallet) public onlyOwner {\n        // Get the bytecode for the InvoiceForwarder contract.\n        // This includes the constructor arguments (_sellerWallet, usdtTokenAddress, address(this) for the owner).\n        bytes memory bytecode = type(InvoiceForwarder).creationCode;\n        bytecode = abi.encodePacked(bytecode, abi.encode(_sellerWallet, usdtTokenAddress, address(this)));\n\n        // Predict the address where the contract will be deployed using CREATE2.\n        address predictedAddress = getAddress(_salt, bytecode);\n\n        // Deploy the contract using CREATE2.\n        address deployedAddress;\n        assembly {\n            deployedAddress := create2(0, add(bytecode, 0x20), mload(bytecode), _salt)\n        }\n\n        // Verify that the deployment was successful and at the predicted address.\n        require(deployedAddress != address(0), \"Deployment failed\");\n        require(deployedAddress == predictedAddress, \"Address mismatch\");\n\n        // Store the address of the new contract.\n        deployedInvoices[_salt] = deployedAddress;\n\n        // Emit an event to notify the backend.\n        emit InvoiceCreated(_salt, deployedAddress, _sellerWallet);\n    }\n\n    /**\n     * @dev Triggers the token sweep on a specific deployed invoice contract.\n     * @param _salt The unique identifier for the invoice to be swept.\n     */\n    function triggerSweep(bytes32 _salt) public onlyOwner {\n        address invoiceAddress = deployedInvoices[_salt];\n        require(invoiceAddress != address(0), \"Invoice does not exist\");\n\n        // Call the sweepTokens function on the specific InvoiceForwarder contract.\n        InvoiceForwarder(invoiceAddress).sweepTokens();\n    }\n\n    // --- View Functions ---\n\n    /**\n     * @dev Predicts the deployment address for a new invoice contract.\n     * @param _salt The unique identifier for the invoice.\n     * @param _bytecode The creation bytecode of the InvoiceForwarder contract.\n     * @return The predicted address.\n     */\n    function getAddress(bytes32 _salt, bytes memory _bytecode) public view returns (address) {\n        bytes32 hash = keccak256(\n            abi.encodePacked(\n                bytes1(0xff),\n                address(this),\n                _salt,\n                keccak256(_bytecode)\n            )\n        );\n        return address(uint160(uint256(hash)));\n    }\n}",
  "sourcePath": "/home/user0/Documents/GitHub/routerpsp/tronbox/contracts/InvoiceFactory.sol",
  "compiler": {
    "name": "solc",
    "version": "0.8.20+commit.5f1834bc.Emscripten.clang"
  },
  "schemaVersion": "2.0.1",
  "updatedAt": "2025-07-11T17:51:24.619Z"
}