{
  "contractName": "InvoiceForwarder",
  "abi": [
    {
      "inputs": [
        {
          "internalType": "address",
          "name": "_sellerWallet",
          "type": "address"
        },
        {
          "internalType": "address",
          "name": "_usdt",
          "type": "address"
        },
        {
          "internalType": "address",
          "name": "_factory",
          "type": "address"
        }
      ],
      "stateMutability": "nonpayable",
      "type": "constructor"
    },
    {
      "inputs": [],
      "name": "owner",
      "outputs": [
        {
          "internalType": "address",
          "name": "",
          "type": "address"
        }
      ],
      "stateMutability": "view",
      "type": "function"
    },
    {
      "inputs": [],
      "name": "sellerWallet",
      "outputs": [
        {
          "internalType": "address",
          "name": "",
          "type": "address"
        }
      ],
      "stateMutability": "view",
      "type": "function"
    },
    {
      "inputs": [],
      "name": "sweepTokens",
      "outputs": [],
      "stateMutability": "nonpayable",
      "type": "function"
    },
    {
      "inputs": [],
      "name": "usdtTokenAddress",
      "outputs": [
        {
          "internalType": "address",
          "name": "",
          "type": "address"
        }
      ],
      "stateMutability": "view",
      "type": "function"
    }
  ],
  "bytecode": "0x608060405234801561000f575f80fd5b50d3801561001b575f80fd5b50d28015610027575f80fd5b506040516107a83803806107a883398181016040528101906100499190610199565b805f806101000a81548173ffffffffffffffffffffffffffffffffffffffff021916908373ffffffffffffffffffffffffffffffffffffffff1602179055508260015f6101000a81548173ffffffffffffffffffffffffffffffffffffffff021916908373ffffffffffffffffffffffffffffffffffffffff1602179055508160025f6101000a81548173ffffffffffffffffffffffffffffffffffffffff021916908373ffffffffffffffffffffffffffffffffffffffff1602179055505050506101e9565b5f80fd5b5f74ffffffffffffffffffffffffffffffffffffffffff82169050919050565b61013d81610114565b8114610147575f80fd5b50565b5f73ffffffffffffffffffffffffffffffffffffffff82169050919050565b5f6101738261014a565b9050919050565b5f8151905061018881610134565b61019181610169565b905092915050565b5f805f606084860312156101b0576101af610110565b5b5f6101bd8682870161017a565b93505060206101ce8682870161017a565b92505060406101df8682870161017a565b9150509250925092565b6105b2806101f65f395ff3fe608060405234801561000f575f80fd5b50d3801561001b575f80fd5b50d28015610027575f80fd5b5060043610610062575f3560e01c80638460a5de146100665780638925dbcc146100845780638da5cb5b1461008e5780639d741e5d146100ac575b5f80fd5b61006e6100ca565b60405161007b919061038b565b60405180910390f35b61008c6100ef565b005b610096610304565b6040516100a3919061038b565b60405180910390f35b6100b4610327565b6040516100c1919061038b565b60405180910390f35b60015f9054906101000a900473ffffffffffffffffffffffffffffffffffffffff1681565b5f8054906101000a900473ffffffffffffffffffffffffffffffffffffffff1673ffffffffffffffffffffffffffffffffffffffff163373ffffffffffffffffffffffffffffffffffffffff161461017c576040517f08c379a0000000000000000000000000000000000000000000000000000000008152600401610173906103fe565b60405180910390fd5b5f60025f9054906101000a900473ffffffffffffffffffffffffffffffffffffffff1690505f8173ffffffffffffffffffffffffffffffffffffffff166370a08231306040518263ffffffff1660e01b81526004016101db919061038b565b602060405180830381865afa1580156101f6573d5f803e3d5ffd5b505050506040513d601f19601f8201168201806040525081019061021a9190610453565b90505f811115610300578173ffffffffffffffffffffffffffffffffffffffff1663a9059cbb60015f9054906101000a900473ffffffffffffffffffffffffffffffffffffffff16836040518363ffffffff1660e01b815260040161028092919061048d565b6020604051808303815f875af115801561029c573d5f803e3d5ffd5b505050506040513d601f19601f820116820180604052508101906102c091906104e9565b6102ff576040517f08c379a00000000000000000000000000000000000000000000000000000000081526004016102f69061055e565b60405180910390fd5b5b5050565b5f8054906101000a900473ffffffffffffffffffffffffffffffffffffffff1681565b60025f9054906101000a900473ffffffffffffffffffffffffffffffffffffffff1681565b5f73ffffffffffffffffffffffffffffffffffffffff82169050919050565b5f6103758261034c565b9050919050565b6103858161036b565b82525050565b5f60208201905061039e5f83018461037c565b92915050565b5f82825260208201905092915050565b7f4f6e6c79206f776e65722063616e2073776565700000000000000000000000005f82015250565b5f6103e86014836103a4565b91506103f3826103b4565b602082019050919050565b5f6020820190508181035f830152610415816103dc565b9050919050565b5f80fd5b5f819050919050565b61043281610420565b811461043c575f80fd5b50565b5f8151905061044d81610429565b92915050565b5f602082840312156104685761046761041c565b5b5f6104758482850161043f565b91505092915050565b61048781610420565b82525050565b5f6040820190506104a05f83018561037c565b6104ad602083018461047e565b9392505050565b5f8115159050919050565b6104c8816104b4565b81146104d2575f80fd5b50565b5f815190506104e3816104bf565b92915050565b5f602082840312156104fe576104fd61041c565b5b5f61050b848285016104d5565b91505092915050565b7f5472616e73666572206661696c656400000000000000000000000000000000005f82015250565b5f610548600f836103a4565b915061055382610514565b602082019050919050565b5f6020820190508181035f8301526105758161053c565b905091905056fea26474726f6e58221220133b2bbecbd324cd902aa3dd8bea86975b916f45a1737355d1816d6a9d6cd6a464736f6c63430008140033",
  "source": "// SPDX-License-Identifier: MIT\npragma solidity ^0.8.0;\n\n/**\n * @title InvoiceForwarder\n * @dev This contract is deployed for each individual invoice. Its sole purpose is to\n * receive a single TRC-20 payment and forward it to the seller's wallet when commanded\n * by the factory.\n */\ncontract InvoiceForwarder {\n    address public owner; // The Factory contract's address\n    address public sellerWallet; // The seller's final wallet\n    address public usdtTokenAddress; // The TRC-20 USDT token address\n\n    constructor(address _sellerWallet, address _usdt, address _factory) {\n        owner = _factory;\n        sellerWallet = _sellerWallet;\n        usdtTokenAddress = _usdt;\n    }\n\n    /**\n     * @dev Sweeps the entire USDT balance of this contract to the seller's wallet.\n     * Can only be called by the owner (the Factory contract).\n     */\n    function sweepTokens() external {\n        require(msg.sender == owner, \"Only owner can sweep\");\n\n        // Define the TRC-20 interface to interact with the USDT contract.\n        // We only need the balanceOf and transfer functions.\n        IERC20 usdt = IERC20(usdtTokenAddress);\n        uint256 balance = usdt.balanceOf(address(this));\n\n        if (balance > 0) {\n            require(usdt.transfer(sellerWallet, balance), \"Transfer failed\");\n        }\n    }\n}\n\n/**\n * @dev A minimal interface for the TRC-20 standard.\n */\ninterface IERC20 {\n    function transfer(address to, uint256 value) external returns (bool);\n    function balanceOf(address who) external view returns (uint256);\n}\n",
  "sourcePath": "/home/user0/Documents/GitHub/routerpsp/tronbox/contracts/InvoiceForwarder.sol",
  "compiler": {
    "name": "solc",
    "version": "0.8.20+commit.5f1834bc.Emscripten.clang"
  },
  "schemaVersion": "2.0.1",
  "updatedAt": "2025-07-11T17:31:37.100Z"
}